{
  "contractName": "DatareumCrowdsale",
  "abi": [
    {
      "constant": true,
      "inputs": [],
      "name": "PRE_ICO_MIN_CAP",
      "outputs": [
        {
          "name": "",
          "type": "uint256"
        }
      ],
      "payable": false,
      "stateMutability": "view",
      "type": "function"
    },
    {
      "constant": true,
      "inputs": [
        {
          "name": "_time",
          "type": "uint256"
        }
      ],
      "name": "getPhase",
      "outputs": [
        {
          "name": "",
          "type": "uint8"
        }
      ],
      "payable": false,
      "stateMutability": "pure",
      "type": "function"
    },
    {
      "constant": false,
      "inputs": [
        {
          "name": "myid",
          "type": "bytes32"
        },
        {
          "name": "result",
          "type": "string"
        }
      ],
      "name": "__callback",
      "outputs": [],
      "payable": false,
      "stateMutability": "nonpayable",
      "type": "function"
    },
    {
      "constant": true,
      "inputs": [],
      "name": "ICO_FINISH",
      "outputs": [
        {
          "name": "",
          "type": "uint256"
        }
      ],
      "payable": false,
      "stateMutability": "view",
      "type": "function"
    },
    {
      "constant": true,
      "inputs": [],
      "name": "ICO_MIN_CAP",
      "outputs": [
        {
          "name": "",
          "type": "uint256"
        }
      ],
      "payable": false,
      "stateMutability": "view",
      "type": "function"
    },
    {
      "constant": true,
      "inputs": [
        {
          "name": "",
          "type": "address"
        }
      ],
      "name": "whiteList",
      "outputs": [
        {
          "name": "",
          "type": "bool"
        }
      ],
      "payable": false,
      "stateMutability": "view",
      "type": "function"
    },
    {
      "constant": false,
      "inputs": [
        {
          "name": "",
          "type": "bytes32"
        },
        {
          "name": "result",
          "type": "string"
        },
        {
          "name": "",
          "type": "bytes"
        }
      ],
      "name": "__callback",
      "outputs": [],
      "payable": false,
      "stateMutability": "nonpayable",
      "type": "function"
    },
    {
      "constant": true,
      "inputs": [],
      "name": "updateFlag",
      "outputs": [
        {
          "name": "",
          "type": "bool"
        }
      ],
      "payable": false,
      "stateMutability": "view",
      "type": "function"
    },
    {
      "constant": true,
      "inputs": [],
      "name": "ICO_MIN_DEPOSIT",
      "outputs": [
        {
          "name": "",
          "type": "uint256"
        }
      ],
      "payable": false,
      "stateMutability": "view",
      "type": "function"
    },
    {
      "constant": false,
      "inputs": [
        {
          "name": "_addresses",
          "type": "address[]"
        }
      ],
      "name": "addToWhiteList",
      "outputs": [],
      "payable": false,
      "stateMutability": "nonpayable",
      "type": "function"
    },
    {
      "constant": false,
      "inputs": [],
      "name": "acceptOwnership",
      "outputs": [],
      "payable": false,
      "stateMutability": "nonpayable",
      "type": "function"
    },
    {
      "constant": true,
      "inputs": [],
      "name": "priceUpdateAt",
      "outputs": [
        {
          "name": "",
          "type": "uint256"
        }
      ],
      "payable": false,
      "stateMutability": "view",
      "type": "function"
    },
    {
      "constant": true,
      "inputs": [],
      "name": "tokenPrice",
      "outputs": [
        {
          "name": "",
          "type": "uint256"
        }
      ],
      "payable": false,
      "stateMutability": "view",
      "type": "function"
    },
    {
      "constant": true,
      "inputs": [],
      "name": "currentExchangePrice",
      "outputs": [
        {
          "name": "",
          "type": "uint256"
        }
      ],
      "payable": false,
      "stateMutability": "view",
      "type": "function"
    },
    {
      "constant": false,
      "inputs": [],
      "name": "addEtherForOraclize",
      "outputs": [],
      "payable": true,
      "stateMutability": "payable",
      "type": "function"
    },
    {
      "constant": true,
      "inputs": [],
      "name": "owner",
      "outputs": [
        {
          "name": "",
          "type": "address"
        }
      ],
      "payable": false,
      "stateMutability": "view",
      "type": "function"
    },
    {
      "constant": true,
      "inputs": [],
      "name": "PRE_ICO_MAX_CAP",
      "outputs": [
        {
          "name": "",
          "type": "uint256"
        }
      ],
      "payable": false,
      "stateMutability": "view",
      "type": "function"
    },
    {
      "constant": false,
      "inputs": [],
      "name": "requestOraclizeBalance",
      "outputs": [],
      "payable": false,
      "stateMutability": "nonpayable",
      "type": "function"
    },
    {
      "constant": false,
      "inputs": [],
      "name": "startOraclize",
      "outputs": [],
      "payable": false,
      "stateMutability": "nonpayable",
      "type": "function"
    },
    {
      "constant": true,
      "inputs": [],
      "name": "ICO_MAX_DEPOSIT",
      "outputs": [
        {
          "name": "",
          "type": "uint256"
        }
      ],
      "payable": false,
      "stateMutability": "view",
      "type": "function"
    },
    {
      "constant": true,
      "inputs": [],
      "name": "getIcoBonus",
      "outputs": [
        {
          "name": "",
          "type": "uint256"
        }
      ],
      "payable": false,
      "stateMutability": "pure",
      "type": "function"
    },
    {
      "constant": true,
      "inputs": [],
      "name": "PRE_ICO_FINISH",
      "outputs": [
        {
          "name": "",
          "type": "uint256"
        }
      ],
      "payable": false,
      "stateMutability": "view",
      "type": "function"
    },
    {
      "constant": false,
      "inputs": [
        {
          "name": "_addresses",
          "type": "address[]"
        }
      ],
      "name": "removeFromWhiteList",
      "outputs": [],
      "payable": false,
      "stateMutability": "nonpayable",
      "type": "function"
    },
    {
      "constant": true,
      "inputs": [],
      "name": "getPreIcoBonus",
      "outputs": [
        {
          "name": "",
          "type": "uint256"
        }
      ],
      "payable": false,
      "stateMutability": "pure",
      "type": "function"
    },
    {
      "constant": true,
      "inputs": [],
      "name": "ethCollected",
      "outputs": [
        {
          "name": "",
          "type": "uint256"
        }
      ],
      "payable": false,
      "stateMutability": "view",
      "type": "function"
    },
    {
      "constant": false,
      "inputs": [],
      "name": "stopOraclize",
      "outputs": [],
      "payable": false,
      "stateMutability": "nonpayable",
      "type": "function"
    },
    {
      "constant": true,
      "inputs": [],
      "name": "oraclizeBalance",
      "outputs": [
        {
          "name": "",
          "type": "uint256"
        }
      ],
      "payable": false,
      "stateMutability": "view",
      "type": "function"
    },
    {
      "constant": true,
      "inputs": [],
      "name": "PRE_ICO_MAX_DEPOSIT",
      "outputs": [
        {
          "name": "",
          "type": "uint256"
        }
      ],
      "payable": false,
      "stateMutability": "view",
      "type": "function"
    },
    {
      "constant": true,
      "inputs": [],
      "name": "ICO_START",
      "outputs": [
        {
          "name": "",
          "type": "uint256"
        }
      ],
      "payable": false,
      "stateMutability": "view",
      "type": "function"
    },
    {
      "constant": true,
      "inputs": [],
      "name": "PRE_ICO_START",
      "outputs": [
        {
          "name": "",
          "type": "uint256"
        }
      ],
      "payable": false,
      "stateMutability": "view",
      "type": "function"
    },
    {
      "constant": true,
      "inputs": [],
      "name": "newOwner",
      "outputs": [
        {
          "name": "",
          "type": "address"
        }
      ],
      "payable": false,
      "stateMutability": "view",
      "type": "function"
    },
    {
      "constant": true,
      "inputs": [],
      "name": "PRE_ICO_MIN_DEPOSIT",
      "outputs": [
        {
          "name": "",
          "type": "uint256"
        }
      ],
      "payable": false,
      "stateMutability": "view",
      "type": "function"
    },
    {
      "constant": false,
      "inputs": [
        {
          "name": "_newOwner",
          "type": "address"
        }
      ],
      "name": "transferOwnership",
      "outputs": [],
      "payable": false,
      "stateMutability": "nonpayable",
      "type": "function"
    },
    {
      "constant": true,
      "inputs": [],
      "name": "token",
      "outputs": [
        {
          "name": "",
          "type": "address"
        }
      ],
      "payable": false,
      "stateMutability": "view",
      "type": "function"
    },
    {
      "inputs": [
        {
          "name": "_tokenAddress",
          "type": "address"
        }
      ],
      "payable": true,
      "stateMutability": "payable",
      "type": "constructor"
    },
    {
      "payable": true,
      "stateMutability": "payable",
      "type": "fallback"
    },
    {
      "anonymous": false,
      "inputs": [
        {
          "indexed": false,
          "name": "price",
          "type": "string"
        }
      ],
      "name": "newPriceTicker",
      "type": "event"
    }
  ],
  "bytecode": "0x60606040526012600755660423af04de76536009556000600b556000600d556000600f556040516020806200335183398101604052808051906020019091905050336000806101000a81548173ffffffffffffffffffffffffffffffffffffffff021916908373ffffffffffffffffffffffffffffffffffffffff16021790555080600860006101000a81548173ffffffffffffffffffffffffffffffffffffffff021916908373ffffffffffffffffffffffffffffffffffffffff160217905550336000806101000a81548173ffffffffffffffffffffffffffffffffffffffff021916908373ffffffffffffffffffffffffffffffffffffffff160217905550600860009054906101000a900473ffffffffffffffffffffffffffffffffffffffff1673ffffffffffffffffffffffffffffffffffffffff16636596cff3306040518263ffffffff167c0100000000000000000000000000000000000000000000000000000000028152600401808273ffffffffffffffffffffffffffffffffffffffff1673ffffffffffffffffffffffffffffffffffffffff168152602001915050600060405180830381600087803b1515620001be57600080fd5b6102c65a03f11515620001d057600080fd5b505050620001f36000620003066401000000000262001d64176401000000009004565b50600260009054906101000a900473ffffffffffffffffffffffffffffffffffffffff1673ffffffffffffffffffffffffffffffffffffffff166338cc48316000604051602001526040518163ffffffff167c0100000000000000000000000000000000000000000000000000000000028152600401602060405180830381600087803b15156200028357600080fd5b6102c65a03f115156200029557600080fd5b50505060405180519050600360006101000a81548173ffffffffffffffffffffffffffffffffffffffff021916908373ffffffffffffffffffffffffffffffffffffffff1602179055506064600360095402811515620002f157fe5b04600a8190555034600f819055505062000974565b6000806200033c731d3b2638a7cc9f2cb3d298a3da7a90b67e5506ed6200089e6401000000000262001d59176401000000009004565b1115620003f657731d3b2638a7cc9f2cb3d298a3da7a90b67e5506ed600260006101000a81548173ffffffffffffffffffffffffffffffffffffffff021916908373ffffffffffffffffffffffffffffffffffffffff160217905550620003ec6040805190810160405280600b81526020017f6574685f6d61696e6e6574000000000000000000000000000000000000000000815250620008a964010000000002620028ce176401000000009004565b6001905062000899565b60006200042b73c03a2615d5efaf5f49f60b7bb6583eaec212fdf16200089e6401000000000262001d59176401000000009004565b1115620004e55773c03a2615d5efaf5f49f60b7bb6583eaec212fdf1600260006101000a81548173ffffffffffffffffffffffffffffffffffffffff021916908373ffffffffffffffffffffffffffffffffffffffff160217905550620004db6040805190810160405280600c81526020017f6574685f726f707374656e330000000000000000000000000000000000000000815250620008a964010000000002620028ce176401000000009004565b6001905062000899565b60006200051a73b7a07bcf2ba2f2703b24c0691b5278999c59ac7e6200089e6401000000000262001d59176401000000009004565b1115620005d45773b7a07bcf2ba2f2703b24c0691b5278999c59ac7e600260006101000a81548173ffffffffffffffffffffffffffffffffffffffff021916908373ffffffffffffffffffffffffffffffffffffffff160217905550620005ca6040805190810160405280600981526020017f6574685f6b6f76616e0000000000000000000000000000000000000000000000815250620008a964010000000002620028ce176401000000009004565b6001905062000899565b60006200060973146500cfd35b22e4a392fe0adc06de1a1368ed486200089e6401000000000262001d59176401000000009004565b1115620006c35773146500cfd35b22e4a392fe0adc06de1a1368ed48600260006101000a81548173ffffffffffffffffffffffffffffffffffffffff021916908373ffffffffffffffffffffffffffffffffffffffff160217905550620006b96040805190810160405280600b81526020017f6574685f72696e6b656279000000000000000000000000000000000000000000815250620008a964010000000002620028ce176401000000009004565b6001905062000899565b6000620006f8736f485c8bf6fc43ea212e93bbf8ce046c7f1cb4756200089e6401000000000262001d59176401000000009004565b11156200075e57736f485c8bf6fc43ea212e93bbf8ce046c7f1cb475600260006101000a81548173ffffffffffffffffffffffffffffffffffffffff021916908373ffffffffffffffffffffffffffffffffffffffff1602179055506001905062000899565b6000620007937320e12a1f859b3feae5fb2a0a32c18f5a65555bbf6200089e6401000000000262001d59176401000000009004565b1115620007f9577320e12a1f859b3feae5fb2a0a32c18f5a65555bbf600260006101000a81548173ffffffffffffffffffffffffffffffffffffffff021916908373ffffffffffffffffffffffffffffffffffffffff1602179055506001905062000899565b60006200082e7351efaf4c8b3c9afbd5ab9f4bbc82784ab6ef8faa6200089e6401000000000262001d59176401000000009004565b111562000894577351efaf4c8b3c9afbd5ab9f4bbc82784ab6ef8faa600260006101000a81548173ffffffffffffffffffffffffffffffffffffffff021916908373ffffffffffffffffffffffffffffffffffffffff1602179055506001905062000899565b600090505b919050565b6000813b9050919050565b8060049080519060200190620008c1929190620008c5565b5050565b828054600181600116156101000203166002900490600052602060002090601f016020900481019282601f106200090857805160ff191683800117855562000939565b8280016001018555821562000939579182015b82811115620009385782518255916020019190600101906200091b565b5b5090506200094891906200094c565b5090565b6200097191905b808211156200096d57600081600090555060010162000953565b5090565b90565b6129cd80620009846000396000f3006060604052600436106101ac576000357c0100000000000000000000000000000000000000000000000000000000900463ffffffff168063042abdf81461021c57806316ef376b1461024557806327dc297e146102825780632ce0b4f6146102ec57806331a3b87314610315578063372c12b11461033e57806338bbfa501461038f5780633a7104d11461043c57806368347fdf14610469578063740d73f31461049257806379ba5097146104ec5780637ea15da1146105015780637ff9b5961461052a5780638bd76535146105535780638d4ea1ba1461057c5780638da5cb5b14610586578063993d13bd146105db5780639c977e43146106045780639ef077ca14610619578063a04f77d81461062e578063a2c4136614610657578063a602452414610680578063b11560c5146106a9578063b705377914610703578063bee2e1341461072c578063c2d560ab14610755578063c4218d331461076a578063ccf7ec8a14610793578063d0ca12ba146107bc578063d4810b61146107e5578063d4ee1d901461080e578063e59eee2e14610863578063f2fde38b1461088c578063fc0c546a146108c5575b600c60003373ffffffffffffffffffffffffffffffffffffffff1673ffffffffffffffffffffffffffffffffffffffff16815260200190815260200160002060009054906101000a900460ff16151561020457600080fd5b61020f33344261091a565b151561021a57600080fd5b005b341561022757600080fd5b61022f610d53565b6040518082815260200191505060405180910390f35b341561025057600080fd5b6102666004808035906020019091905050610d58565b604051808260ff1660ff16815260200191505060405180910390f35b341561028d57600080fd5b6102ea60048080356000191690602001909190803590602001908201803590602001908080601f01602080910402602001604051908101604052809392919081815260200183838082843782019150505050505091905050610dab565b005b34156102f757600080fd5b6102ff610ddd565b6040518082815260200191505060405180910390f35b341561032057600080fd5b610328610de5565b6040518082815260200191505060405180910390f35b341561034957600080fd5b610375600480803573ffffffffffffffffffffffffffffffffffffffff16906020019091905050610dec565b604051808215151515815260200191505060405180910390f35b341561039a57600080fd5b61043a60048080356000191690602001909190803590602001908201803590602001908080601f0160208091040260200160405190810160405280939291908181526020018383808284378201915050505050509190803590602001908201803590602001908080601f01602080910402602001604051908101604052809392919081815260200183838082843782019150505050505091905050610e0c565b005b341561044757600080fd5b61044f610f68565b604051808215151515815260200191505060405180910390f35b341561047457600080fd5b61047c610f7b565b6040518082815260200191505060405180910390f35b341561049d57600080fd5b6104ea600480803590602001908201803590602001908080602002602001604051908101604052809392919081815260200183836020028082843782019150505050505091905050610f87565b005b34156104f757600080fd5b6104ff611072565b005b341561050c57600080fd5b61051461112d565b6040518082815260200191505060405180910390f35b341561053557600080fd5b61053d611133565b6040518082815260200191505060405180910390f35b341561055e57600080fd5b610566611139565b6040518082815260200191505060405180910390f35b61058461113f565b005b341561059157600080fd5b61059961115c565b604051808273ffffffffffffffffffffffffffffffffffffffff1673ffffffffffffffffffffffffffffffffffffffff16815260200191505060405180910390f35b34156105e657600080fd5b6105ee611181565b6040518082815260200191505060405180910390f35b341561060f57600080fd5b610617611190565b005b341561062457600080fd5b61062c611313565b005b341561063957600080fd5b610641611395565b6040518082815260200191505060405180910390f35b341561066257600080fd5b61066a6113a2565b6040518082815260200191505060405180910390f35b341561068b57600080fd5b6106936113aa565b6040518082815260200191505060405180910390f35b34156106b457600080fd5b6107016004808035906020019082018035906020019080806020026020016040519081016040528093929190818152602001838360200280828437820191505050505050919050506113b2565b005b341561070e57600080fd5b61071661149d565b6040518082815260200191505060405180910390f35b341561073757600080fd5b61073f6114a6565b6040518082815260200191505060405180910390f35b341561076057600080fd5b6107686114ac565b005b341561077557600080fd5b61077d611524565b6040518082815260200191505060405180910390f35b341561079e57600080fd5b6107a661152a565b6040518082815260200191505060405180910390f35b34156107c757600080fd5b6107cf611537565b6040518082815260200191505060405180910390f35b34156107f057600080fd5b6107f861153f565b6040518082815260200191505060405180910390f35b341561081957600080fd5b610821611544565b604051808273ffffffffffffffffffffffffffffffffffffffff1673ffffffffffffffffffffffffffffffffffffffff16815260200191505060405180910390f35b341561086e57600080fd5b61087661156a565b6040518082815260200191505060405180910390f35b341561089757600080fd5b6108c3600480803573ffffffffffffffffffffffffffffffffffffffff1690602001909190505061156f565b005b34156108d057600080fd5b6108d861164a565b604051808273ffffffffffffffffffffffffffffffffffffffff1673ffffffffffffffffffffffffffffffffffffffff16815260200191505060405180910390f35b600080600061092884610d58565b915060008260ff1611151561093c57600080fd5b6000905061095585600b5461167090919063ffffffff16565b600b8190555060018260ff161415610af95760008510158015610981575068056bc75e2d631000008511155b151561098c57600080fd5b610a2c60646109df61099c61149d565b600a546109c76109b8600754600a61168e90919063ffffffff16565b8b6116bf90919063ffffffff16565b8115156109d057fe5b046116bf90919063ffffffff16565b8115156109e857fe5b04600a54610a14610a05600754600a61168e90919063ffffffff16565b896116bf90919063ffffffff16565b811515610a1d57fe5b0461167090919063ffffffff16565b90506a01a784379d99db42000000610a4f86600b5461167090919063ffffffff16565b11151515610a5c57600080fd5b6000600b541115610af4576000809054906101000a900473ffffffffffffffffffffffffffffffffffffffff1673ffffffffffffffffffffffffffffffffffffffff166108fc610ace600f543073ffffffffffffffffffffffffffffffffffffffff163161170590919063ffffffff16565b9081150290604051600060405180830381858888f193505050501515610af357600080fd5b5b610c6e565b60028260ff161415610c6d5767016345785d8a00008510158015610b25575068056bc75e2d6310000085105b1515610b3057600080fd5b610bd06064610b83610b406113a2565b600a54610b6b610b5c600754600a61168e90919063ffffffff16565b8b6116bf90919063ffffffff16565b811515610b7457fe5b046116bf90919063ffffffff16565b811515610b8c57fe5b04600a54610bb8610ba9600754600a61168e90919063ffffffff16565b896116bf90919063ffffffff16565b811515610bc157fe5b0461167090919063ffffffff16565b90506207a120600b541115610c6c576000809054906101000a900473ffffffffffffffffffffffffffffffffffffffff1673ffffffffffffffffffffffffffffffffffffffff166108fc610c46600f543073ffffffffffffffffffffffffffffffffffffffff163161170590919063ffffffff16565b9081150290604051600060405180830381858888f193505050501515610c6b57600080fd5b5b5b5b600860009054906101000a900473ffffffffffffffffffffffffffffffffffffffff1673ffffffffffffffffffffffffffffffffffffffff16639c1f020a87836040518363ffffffff167c0100000000000000000000000000000000000000000000000000000000028152600401808373ffffffffffffffffffffffffffffffffffffffff1673ffffffffffffffffffffffffffffffffffffffff16815260200182815260200192505050600060405180830381600087803b1515610d3257600080fd5b6102c65a03f11515610d4357600080fd5b5050506001925050509392505050565b600081565b600081600011158015610d6e5750635b1f0cc482105b15610d7c5760019050610da6565b81635b36c80011158015610d935750635b60f7c482105b15610da15760029050610da6565b600090505b919050565b610dd982826000604051805910610dbf5750595b9080825280601f01601f1916602001820160405250610e0c565b5050565b635b60f7c481565b6207a12081565b600c6020528060005260406000206000915054906101000a900460ff1681565b6000610e1661171e565b73ffffffffffffffffffffffffffffffffffffffff163373ffffffffffffffffffffffffffffffffffffffff16141515610e4f57600080fd5b610e5a836005611938565b69152d02c7e14af6800000811515610e6e57fe5b049050600081111515610e8057600080fd5b806009819055506064600360095402811515610e9857fe5b04600a8190555042600d819055507f6497bd3a7d603cd3fc8da26f0b500e8b758f95f2c0e94789a463293e6dbce4fe836040518080602001828103825283818151815260200191508051906020019080838360005b83811015610f08578082015181840152602081019050610eed565b50505050905090810190601f168015610f355780820380516001836020036101000a031916815260200191505b509250505060405180910390a1600e60009054906101000a900460ff1615610f6257610f616000611c32565b5b50505050565b600e60009054906101000a900460ff1681565b67016345785d8a000081565b60008060009054906101000a900473ffffffffffffffffffffffffffffffffffffffff1673ffffffffffffffffffffffffffffffffffffffff163373ffffffffffffffffffffffffffffffffffffffff16141515610fe457600080fd5b600090505b815181101561106e576001600c6000848481518110151561100657fe5b9060200190602002015173ffffffffffffffffffffffffffffffffffffffff1673ffffffffffffffffffffffffffffffffffffffff16815260200190815260200160002060006101000a81548160ff0219169083151502179055508080600101915050610fe9565b5050565b600160009054906101000a900473ffffffffffffffffffffffffffffffffffffffff1673ffffffffffffffffffffffffffffffffffffffff163373ffffffffffffffffffffffffffffffffffffffff16141561112b57600160009054906101000a900473ffffffffffffffffffffffffffffffffffffffff166000806101000a81548173ffffffffffffffffffffffffffffffffffffffff021916908373ffffffffffffffffffffffffffffffffffffffff1602179055505b565b600d5481565b600a5481565b60095481565b61115434600f5461167090919063ffffffff16565b600f81905550565b6000809054906101000a900473ffffffffffffffffffffffffffffffffffffffff1681565b6a01a784379d99db4200000081565b6000809054906101000a900473ffffffffffffffffffffffffffffffffffffffff1673ffffffffffffffffffffffffffffffffffffffff163373ffffffffffffffffffffffffffffffffffffffff161415156111eb57600080fd5b6000600e60006101000a81548160ff021916908315150217905550600f543073ffffffffffffffffffffffffffffffffffffffff1631101515611290576000809054906101000a900473ffffffffffffffffffffffffffffffffffffffff1673ffffffffffffffffffffffffffffffffffffffff166108fc600f549081150290604051600060405180830381858888f19350505050151561128b57600080fd5b611309565b6000809054906101000a900473ffffffffffffffffffffffffffffffffffffffff1673ffffffffffffffffffffffffffffffffffffffff166108fc3073ffffffffffffffffffffffffffffffffffffffff16319081150290604051600060405180830381858888f19350505050151561130857600080fd5b5b6000600f81905550565b6000809054906101000a900473ffffffffffffffffffffffffffffffffffffffff1673ffffffffffffffffffffffffffffffffffffffff163373ffffffffffffffffffffffffffffffffffffffff1614151561136e57600080fd5b6001600e60006101000a81548160ff0219169083151502179055506113936001611c32565b565b68056bc75e2d6310000081565b600080905090565b635b1f0cc481565b60008060009054906101000a900473ffffffffffffffffffffffffffffffffffffffff1673ffffffffffffffffffffffffffffffffffffffff163373ffffffffffffffffffffffffffffffffffffffff1614151561140f57600080fd5b600090505b8151811015611499576000600c6000848481518110151561143157fe5b9060200190602002015173ffffffffffffffffffffffffffffffffffffffff1673ffffffffffffffffffffffffffffffffffffffff16815260200190815260200160002060006101000a81548160ff0219169083151502179055508080600101915050611414565b5050565b60006014905090565b600b5481565b6000809054906101000a900473ffffffffffffffffffffffffffffffffffffffff1673ffffffffffffffffffffffffffffffffffffffff163373ffffffffffffffffffffffffffffffffffffffff1614151561150757600080fd5b6000600e60006101000a81548160ff021916908315150217905550565b600f5481565b68056bc75e2d6310000081565b635b36c80081565b600081565b600160009054906101000a900473ffffffffffffffffffffffffffffffffffffffff1681565b600081565b6000809054906101000a900473ffffffffffffffffffffffffffffffffffffffff1673ffffffffffffffffffffffffffffffffffffffff163373ffffffffffffffffffffffffffffffffffffffff161415156115ca57600080fd5b600073ffffffffffffffffffffffffffffffffffffffff168173ffffffffffffffffffffffffffffffffffffffff161415151561160657600080fd5b80600160006101000a81548173ffffffffffffffffffffffffffffffffffffffff021916908373ffffffffffffffffffffffffffffffffffffffff16021790555050565b600860009054906101000a900473ffffffffffffffffffffffffffffffffffffffff1681565b600080828401905083811015151561168457fe5b8091505092915050565b60008060008314156116a357600191506116b8565b82840a90508381101515156116b457fe5b8091505b5092915050565b60008060008414806116d15750600083145b156116df57600091506116fe565b82840290508284828115156116f057fe5b041415156116fa57fe5b8091505b5092915050565b600082821115151561171357fe5b818303905092915050565b600080600260009054906101000a900473ffffffffffffffffffffffffffffffffffffffff1673ffffffffffffffffffffffffffffffffffffffff1614806117905750600061178e600260009054906101000a900473ffffffffffffffffffffffffffffffffffffffff16611d59565b145b156117a15761179f6000611d64565b505b600260009054906101000a900473ffffffffffffffffffffffffffffffffffffffff1673ffffffffffffffffffffffffffffffffffffffff166338cc48316000604051602001526040518163ffffffff167c0100000000000000000000000000000000000000000000000000000000028152600401602060405180830381600087803b151561182f57600080fd5b6102c65a03f1151561184057600080fd5b50505060405180519050600360006101000a81548173ffffffffffffffffffffffffffffffffffffffff021916908373ffffffffffffffffffffffffffffffffffffffff160217905550600360009054906101000a900473ffffffffffffffffffffffffffffffffffffffff1673ffffffffffffffffffffffffffffffffffffffff1663c281d19e6000604051602001526040518163ffffffff167c0100000000000000000000000000000000000000000000000000000000028152600401602060405180830381600087803b151561191857600080fd5b6102c65a03f1151561192957600080fd5b50505060405180519050905090565b60006119426128e8565b60008060008693506000925060009150600090505b8351811015611c135760307f010000000000000000000000000000000000000000000000000000000000000002848281518110151561199257fe5b9060200101517f010000000000000000000000000000000000000000000000000000000000000090047f0100000000000000000000000000000000000000000000000000000000000000027effffffffffffffffffffffffffffffffffffffffffffffffffffffffffffff191610158015611aaa575060397f0100000000000000000000000000000000000000000000000000000000000000028482815181101515611a3a57fe5b9060200101517f010000000000000000000000000000000000000000000000000000000000000090047f0100000000000000000000000000000000000000000000000000000000000000027effffffffffffffffffffffffffffffffffffffffffffffffffffffffffffff191611155b15611b5b578115611acd576000861415611ac357611c13565b8580600190039650505b600a8302925060308482815181101515611ae357fe5b9060200101517f010000000000000000000000000000000000000000000000000000000000000090047f0100000000000000000000000000000000000000000000000000000000000000027f010000000000000000000000000000000000000000000000000000000000000090040383019250611c06565b602e7f0100000000000000000000000000000000000000000000000000000000000000028482815181101515611b8d57fe5b9060200101517f010000000000000000000000000000000000000000000000000000000000000090047f0100000000000000000000000000000000000000000000000000000000000000027effffffffffffffffffffffffffffffffffffffffffffffffffffffffffffff19161415611c0557600191505b5b8080600101915050611957565b6000861115611c255785600a0a830292505b8294505050505092915050565b611cf5603c6040805190810160405280600381526020017f55524c0000000000000000000000000000000000000000000000000000000000815250608060405190810160405280604c81526020017f6a736f6e2868747470733a2f2f6170692e6b72616b656e2e636f6d2f302f707581526020017f626c69632f5469636b65723f706169723d455448555344292e726573756c742e81526020017f584554485a5553442e632e3000000000000000000000000000000000000000008152506121fc565b50801515611d5657611d4f611d3e6040805190810160405280600381526020017f55524c0000000000000000000000000000000000000000000000000000000000815250612642565b600f5461170590919063ffffffff16565b600f819055505b50565b6000813b9050919050565b600080611d84731d3b2638a7cc9f2cb3d298a3da7a90b67e5506ed611d59565b1115611e2657731d3b2638a7cc9f2cb3d298a3da7a90b67e5506ed600260006101000a81548173ffffffffffffffffffffffffffffffffffffffff021916908373ffffffffffffffffffffffffffffffffffffffff160217905550611e1d6040805190810160405280600b81526020017f6574685f6d61696e6e65740000000000000000000000000000000000000000008152506128ce565b600190506121f7565b6000611e4573c03a2615d5efaf5f49f60b7bb6583eaec212fdf1611d59565b1115611ee75773c03a2615d5efaf5f49f60b7bb6583eaec212fdf1600260006101000a81548173ffffffffffffffffffffffffffffffffffffffff021916908373ffffffffffffffffffffffffffffffffffffffff160217905550611ede6040805190810160405280600c81526020017f6574685f726f707374656e3300000000000000000000000000000000000000008152506128ce565b600190506121f7565b6000611f0673b7a07bcf2ba2f2703b24c0691b5278999c59ac7e611d59565b1115611fa85773b7a07bcf2ba2f2703b24c0691b5278999c59ac7e600260006101000a81548173ffffffffffffffffffffffffffffffffffffffff021916908373ffffffffffffffffffffffffffffffffffffffff160217905550611f9f6040805190810160405280600981526020017f6574685f6b6f76616e00000000000000000000000000000000000000000000008152506128ce565b600190506121f7565b6000611fc773146500cfd35b22e4a392fe0adc06de1a1368ed48611d59565b11156120695773146500cfd35b22e4a392fe0adc06de1a1368ed48600260006101000a81548173ffffffffffffffffffffffffffffffffffffffff021916908373ffffffffffffffffffffffffffffffffffffffff1602179055506120606040805190810160405280600b81526020017f6574685f72696e6b6562790000000000000000000000000000000000000000008152506128ce565b600190506121f7565b6000612088736f485c8bf6fc43ea212e93bbf8ce046c7f1cb475611d59565b11156120ec57736f485c8bf6fc43ea212e93bbf8ce046c7f1cb475600260006101000a81548173ffffffffffffffffffffffffffffffffffffffff021916908373ffffffffffffffffffffffffffffffffffffffff160217905550600190506121f7565b600061210b7320e12a1f859b3feae5fb2a0a32c18f5a65555bbf611d59565b111561216f577320e12a1f859b3feae5fb2a0a32c18f5a65555bbf600260006101000a81548173ffffffffffffffffffffffffffffffffffffffff021916908373ffffffffffffffffffffffffffffffffffffffff160217905550600190506121f7565b600061218e7351efaf4c8b3c9afbd5ab9f4bbc82784ab6ef8faa611d59565b11156121f2577351efaf4c8b3c9afbd5ab9f4bbc82784ab6ef8faa600260006101000a81548173ffffffffffffffffffffffffffffffffffffffff021916908373ffffffffffffffffffffffffffffffffffffffff160217905550600190506121f7565b600090505b919050565b6000806000600260009054906101000a900473ffffffffffffffffffffffffffffffffffffffff1673ffffffffffffffffffffffffffffffffffffffff1614806122705750600061226e600260009054906101000a900473ffffffffffffffffffffffffffffffffffffffff16611d59565b145b156122815761227f6000611d64565b505b600260009054906101000a900473ffffffffffffffffffffffffffffffffffffffff1673ffffffffffffffffffffffffffffffffffffffff166338cc48316000604051602001526040518163ffffffff167c0100000000000000000000000000000000000000000000000000000000028152600401602060405180830381600087803b151561230f57600080fd5b6102c65a03f1151561232057600080fd5b50505060405180519050600360006101000a81548173ffffffffffffffffffffffffffffffffffffffff021916908373ffffffffffffffffffffffffffffffffffffffff160217905550600360009054906101000a900473ffffffffffffffffffffffffffffffffffffffff1673ffffffffffffffffffffffffffffffffffffffff1663524f3889856000604051602001526040518263ffffffff167c01000000000000000000000000000000000000000000000000000000000281526004018080602001828103825283818151815260200191508051906020019080838360005b8381101561241d578082015181840152602081019050612402565b50505050905090810190601f16801561244a5780820380516001836020036101000a031916815260200191505b5092505050602060405180830381600087803b151561246857600080fd5b6102c65a03f1151561247957600080fd5b50505060405180519050905062030d403a02670de0b6b3a7640000018111156124a8576000600102915061263a565b600360009054906101000a900473ffffffffffffffffffffffffffffffffffffffff1673ffffffffffffffffffffffffffffffffffffffff1663adf59f99828787876000604051602001526040518563ffffffff167c0100000000000000000000000000000000000000000000000000000000028152600401808481526020018060200180602001838103835285818151815260200191508051906020019080838360005b8381101561256857808201518184015260208101905061254d565b50505050905090810190601f1680156125955780820380516001836020036101000a031916815260200191505b50838103825284818151815260200191508051906020019080838360005b838110156125ce5780820151818401526020810190506125b3565b50505050905090810190601f1680156125fb5780820380516001836020036101000a031916815260200191505b50955050505050506020604051808303818588803b151561261b57600080fd5b6125ee5a03f1151561262c57600080fd5b505050506040518051905091505b509392505050565b600080600260009054906101000a900473ffffffffffffffffffffffffffffffffffffffff1673ffffffffffffffffffffffffffffffffffffffff1614806126b4575060006126b2600260009054906101000a900473ffffffffffffffffffffffffffffffffffffffff16611d59565b145b156126c5576126c36000611d64565b505b600260009054906101000a900473ffffffffffffffffffffffffffffffffffffffff1673ffffffffffffffffffffffffffffffffffffffff166338cc48316000604051602001526040518163ffffffff167c0100000000000000000000000000000000000000000000000000000000028152600401602060405180830381600087803b151561275357600080fd5b6102c65a03f1151561276457600080fd5b50505060405180519050600360006101000a81548173ffffffffffffffffffffffffffffffffffffffff021916908373ffffffffffffffffffffffffffffffffffffffff160217905550600360009054906101000a900473ffffffffffffffffffffffffffffffffffffffff1673ffffffffffffffffffffffffffffffffffffffff1663524f3889836000604051602001526040518263ffffffff167c01000000000000000000000000000000000000000000000000000000000281526004018080602001828103825283818151815260200191508051906020019080838360005b83811015612861578082015181840152602081019050612846565b50505050905090810190601f16801561288e5780820380516001836020036101000a031916815260200191505b5092505050602060405180830381600087803b15156128ac57600080fd5b6102c65a03f115156128bd57600080fd5b505050604051805190509050919050565b80600490805190602001906128e49291906128fc565b5050565b602060405190810160405280600081525090565b828054600181600116156101000203166002900490600052602060002090601f016020900481019282601f1061293d57805160ff191683800117855561296b565b8280016001018555821561296b579182015b8281111561296a57825182559160200191906001019061294f565b5b509050612978919061297c565b5090565b61299e91905b8082111561299a576000816000905550600101612982565b5090565b905600a165627a7a723058203088db8fd5795be9737922ecbd4faedbff7c7ebcd2657f844b1d62563cb3bbc20029",
  "source": "import \"./Oraclize.sol\";\nimport \"./Ownable.sol\";\nimport \"./SafeMath.sol\";\n\n//Abstract Token contract\ncontract DatareumToken{\n  function setCrowdsaleContract (address) public;\n  function sendCrowdsaleTokens(address, uint256)  public ;\n  function setIcoFinishedTrue () public;\n\n}\n\n//Crowdsale contract\ncontract DatareumCrowdsale is Ownable, usingOraclize{\n\n  using SafeMath for uint;\n\n  uint decimals = 18;\n\n  // Token contract address\n  DatareumToken public token;\n\n  uint public currentExchangePrice = 1165134514779731;\n  uint public tokenPrice; //0.03USD\n\n  // Constructor\n  function DatareumCrowdsale(address _tokenAddress) public payable{\n    token = DatareumToken(_tokenAddress);\n    owner = msg.sender;\n\n    token.setCrowdsaleContract(this);\n    \n    oraclize_setNetwork(networkID_auto);\n    oraclize = OraclizeI(OAR.getAddress());\n    \n    tokenPrice = currentExchangePrice*3/100;\n\n    oraclizeBalance = msg.value;\n  }\n\n\n  function getPhase(uint _time) public pure returns(uint8) {\n    if (PRE_ICO_START <= _time && _time < PRE_ICO_FINISH){\n      return 1;\n    }\n    if (ICO_START <= _time && _time < ICO_FINISH){\n      return 2;\n    }\n    return 0;\n  }\n\n  function getPreIcoBonus() public pure returns(uint) {\n    return 20;  \n  }\n\n  function getIcoBonus () public pure returns(uint) {\n    return 0;\n  }\n  \n\n  //PRE ICO CONSTANTS\n  uint public constant PRE_ICO_MIN_DEPOSIT = 0 ether; //5 ether\n  uint public constant PRE_ICO_MAX_DEPOSIT = 100 ether;\n\n  uint public constant PRE_ICO_MIN_CAP = 0;\n  uint public constant PRE_ICO_MAX_CAP = 2000000 ether;\n\n  uint public constant PRE_ICO_START = 0; //1527768000\n  uint public constant PRE_ICO_FINISH = 1528761540;\n  //END PRE ICO CONSTANTS\n\n  //ICO CONSTANTS\n  uint public constant ICO_MIN_DEPOSIT = 0.1 ether;\n  uint public constant ICO_MAX_DEPOSIT = 100 ether;\n\n  uint public constant ICO_MIN_CAP = 500000;\n  // uint public constant ICO_MAX_CAP = 2000000 ether;\n\n  uint public constant ICO_START = 1530316800;\n  uint public constant ICO_FINISH = 1533081540;\n  //END ICO CONSTANTS\n\n  uint public ethCollected = 0;\n\n  mapping (address => bool) public whiteList;\n  \n  function addToWhiteList(address[] _addresses) public onlyOwner {\n    for (uint i = 0; i < _addresses.length; i++){\n      whiteList[_addresses[i]] = true;\n    }\n  }\n\n  function removeFromWhiteList (address[] _addresses) public onlyOwner {\n    for (uint i = 0; i < _addresses.length; i++){\n      whiteList[_addresses[i]] = false;\n    }\n  }\n  \n  \n  \n  function () public payable {\n    require (whiteList[msg.sender]);\n    require (buy(msg.sender, msg.value, now));\n  }\n\n  function buy (address _address, uint _value, uint _time) internal returns(bool)  {\n    uint8 currentPhase = getPhase(_time);\n    require (currentPhase > 0);\n\n    uint tokensToSend = 0;\n\n    ethCollected = ethCollected.add(_value);\n\n    if (currentPhase == 1){\n      require (_value >= PRE_ICO_MIN_DEPOSIT && _value <= PRE_ICO_MAX_DEPOSIT);\n\n      tokensToSend = (_value.mul((uint)(10).pow(decimals))/tokenPrice).add((_value.mul((uint)(10).pow(decimals))/tokenPrice).mul(getPreIcoBonus())/100);\n\n      require (ethCollected.add(_value) <= PRE_ICO_MAX_CAP);\n\n      if (ethCollected > PRE_ICO_MIN_CAP){\n        owner.transfer(this.balance.sub(oraclizeBalance));\n      }\n\n    }else if(currentPhase == 2){\n      require (_value >= ICO_MIN_DEPOSIT && _value < ICO_MAX_DEPOSIT);\n\n      tokensToSend = (_value.mul((uint)(10).pow(decimals))/tokenPrice).add((_value.mul((uint)(10).pow(decimals))/tokenPrice).mul(getIcoBonus())/100);\n\n      // require (ethCollected.add(_value) <= ICO_MAX_CAP);\n\n      if (ethCollected > ICO_MIN_CAP){\n        owner.transfer(this.balance.sub(oraclizeBalance));\n      }\n    }\n\n    // update();\n    token.sendCrowdsaleTokens(_address,tokensToSend);\n\n    return true;\n  }\n  \n  uint public priceUpdateAt = 0;\n  \n  event newPriceTicker(string price);\n  \n  function __callback(bytes32, string result, bytes) public {\n    require(msg.sender == oraclize_cbAddress());\n\n    uint256 price = 10 ** 23 / parseInt(result, 5);\n\n    require(price > 0);\n    currentExchangePrice = price;\n    tokenPrice = currentExchangePrice*3/100;\n        \n    priceUpdateAt = block.timestamp;\n        \n    newPriceTicker(result);\n    \n    if(updateFlag){\n      update(false);\n    }\n  }\n  \n  bool public updateFlag;\n  \n  function update(bool flag) internal {\n    oraclize_query(60,\"URL\", \"json(https://api.kraken.com/0/public/Ticker?pair=ETHUSD).result.XETHZUSD.c.0\");\n    //86400\n    if(!flag){\n      oraclizeBalance = oraclizeBalance.sub(oraclize_getPrice(\"URL\")); //request to oraclize\n    }\n  }\n  \n\n  uint public oraclizeBalance = 0;\n\n  function addEtherForOraclize () public payable {\n    oraclizeBalance = oraclizeBalance.add(msg.value);\n  }\n\n  function requestOraclizeBalance () public onlyOwner {\n    updateFlag = false;\n    if (this.balance >= oraclizeBalance){\n      owner.transfer(oraclizeBalance);\n    }else{\n      owner.transfer(this.balance);\n    }\n    oraclizeBalance = 0;\n  }\n  \n  function startOraclize () public onlyOwner {\n    updateFlag = true;\n    update(true);\n  }\n  \n  function stopOraclize () public onlyOwner {\n    updateFlag = false;\n  }\n\n}",
  "sourcePath": "/home/romuch/Desktop/DatareumTruffle/contracts/DatareumCrowdsale.sol",
  "compiler": {
    "name": "solc",
    "version": "0.4.19+commit.c4cbbb05.Emscripten.clang"
  },
  "schemaVersion": "1.0.1",
  "updatedAt": "2018-02-27T11:17:06.613Z"
}